S3150800000008B800205D0200084D8E0008C96F000878
S31508000010018E0008AD12000825D600080000000071
S315080000200000000000000000000000009D0100081C
S315080000306D1F000800000000F90100081D9B00085C
S31508000040770200087702000877020008770200089E
S315080000507702000877020008E51F00087702000803
S31508000060770200087702000877020008770200087E
S31508000070B11C00087702000877020008770200081A
S31508000080770200087702000877020008770200085E
S31508000090B11200087702000877020008EF1F00086F
S315080000A0770200087702000877020008770200083E
S315080000B0519C0008770200087702000877020008BA
S315080000C0770200087702000877020008770200081E
S315080000D07702000869AB00087702000881AB0008C0
S315080000E077020008770200087702000877020008FE
S315080000F0799C0008619C00087702000877020008CE
S3150800010077020008770200087702000877020008DD
S3150800011077020008770200087702000877020008CD
S31508000120C11C000877020008D11C0008E11C000861
S3150800013077020008770200087702000877020008AD
S31508000140A91300087702000877020008C58F00087F
S31508000150F11C0008011D0008111D000895AB0008D8
S31508000160770200087702000877020008770200087D
S3150800017077020008770200087702000800000000EE
S315080001807702000877020008DFF80CD000F028FC98
S3150800019000480047A526010808B800202C4B196816
S315080001A00868B0E8F04F80F30988BFF36F8F4FF007
S315080001B0000080F3118870470000000008480068B6
S315080001C0006880F308884FF0000080F3148862B650
S315080001D061B6BFF34F8FBFF36F8F00DF00BF00BF5D
S315080001E008ED00E0DFF80C00016841F470010160D9
S315080001F0704700BF88ED00E0EFF30980BFF36F8F0B
S31508000200134B1A681EF0100F08BF20ED108A20E95C
S31508000210F04F106009B44FF0500080F31188BFF317
S315080002204F8FBFF36F8F15F081FB4FF0000080F3FF
S31508000230118809BC19680868B0E8F04F1EF0100F5D
S3150800024008BFB0EC108A80F30988BFF36F8F704738
S3150800025090020020EFF305807047000006488047AB
S3150800026006480047FEE7FEE7FEE7FEE7FEE7FEE78D
S31508000270FEE7FEE7FEE7FEE7ED9B000889010008BA
S315080002802DE9F05F0546002092469B4688460646BD
S31508000290814640241BE0284641464746224600F050
S315080002A0B2FA53465A46C01A914110D31146184617
S315080002B0224600F099FA2D1A67EB01084F462246A6
S315080002C00120002100F090FA17EB00094E41201E8C
S315080002D0A4F10104DFDC484631462A464346BDE818
S315080002E0F09F40EA01039B0703D009E008C9121FE3
S315080002F008C0042AFAD203E011F8013B00F8013BD2
S31508000300521EF9D27047D2B201E000F8012B491EFD
S31508000310FBD270470022F6E710B513460A46044694
S315080003201946FFF7F0FF204610BD2DE9FE4F80461F
S3150800033081EA0300C00F0C46009021F0004123F02B
S315080003400045B8EB0200A94105D240462146904631
S315080003501C460B46024623F00040104347D0270DA3
S31508000360C7F30A00C3F30A510290401A01904028C5
S315080003706BDAC3F3130040F4801B0098924620B151
S315080003800023D2EB030A63EB0B0B01985946C0F125
S315080003904002504600F028FA06460D465046594691
S315080003A0019A00F040FA10EB08006141002487EA40
S315080003B0115284EAE7731A4340D0009A62B3019A4D
S315080003C0012A4FEA075215DC001B61EB02014FF0C8
S315080003D0004202EA0752CDE90042001C41F58011AD
S315080003E032462B4600F077FA03B0BDE8F08F404658
S315080003F02146F9E7001B61EB0201001C41F5801359
S3150800040000185B412018A2F5001747EB030140EAE4
S31508000410D570B6196D4111E06D084FEA360645EA02
S31508000420C0754FEA0752001B61EB0201001C41F53B
S31508000430801149084FEA30000019514132462B46CF
S3150800044003B0BDE8F04F00F037BA0098012240002B
S315080004500023D0EB020263EBE073009821464FEAD3
S31508000460E074B8EB000061EB0401E9E783F00043B0
S315080004705BE781F0004158E72DE9FE4F81EA030466
S3150800048004F0004421F0004100944FF0000B23F0E3
S31508000490004350EA01045ED052EA03045BD0C3F37A
S315080004A00A54C1F30A552C44A4F2F3340194A0FB70
S315080004B00254C1F3130141F48011C3F3130343F447
S315080004C0801301FB024400FB034E840A970A44EAA0
S315080004D0815447EA8357A4FB076802958D0A05FBF2
S315080004E007854FEA932C04FB0C542705029D4FEA17
S315080004F0065847EA1637B5EB08056EEB070C870E64
S31508000500920E47EA811742EA8312A7FB0201B6EB6D
S315080005100B0164EB00042B0D43EA0C335E1844EB25
S315080005201C50DA465146E7FB0201C5F313044FEAAD
S315080005300B3343EA14534FEA0432019C43EA060399
S31508000540A4F10C040294009CCDE900B400F0C3F9B0
S3150800055003B0BDE8F08F00200146F9E72DE9F04D1C
S3150800056081EA030404F0004B21F0004514464FF0DD
S31508000570000A23F0004150EA050220D054EA01029D
S315080005801DD0C5F30A570246C5F31303C1F313007A
S31508000590C1F30A5640F4801543F48013A7EB060806
S315080005A0101BD64608F2FD3873EB050002D308F196
S315080005B0010801E092185B41B8F1000F03DA002048
S315080005C00146BDE8F08D00204FF4801106468446AA
S315080005D00EE0171B73EB050705D3121B63EB050328
S315080005E006434CEA010C49084FEA300092185B4171
S315080005F050EA0107EDD152EA030012D082EA04005C
S3150800060083EA0501084305D0101BAB4106D2012237
S31508000610002306E000224FF0004302E06FF00102DB
S3150800062053101AEB06004CEB085110EB0A0041EB8D
S315080006300B01BDE8F04D00F03FB9F0B4CA17CB0F77
S3150800064050405140C61841F100054FEAC372314681
S3150800065028004FF0960303D0B623F0BC00F0FEB88E
S3150800066030460021F9E70EB5C10F80EAE07008446C
S31508000670CA07002140F233438DE80E000A460B46AE
S3150800068000F029F903B000BD10B500F0004420F0D1
S315080006900040C20DC0F3160040F400007F2A02DABB
S315080006A00020014610BD0021962A03DCC2F19602FD
S315080006B0D04002E0963A00F097F8002CF2D00023DA
S315080006C0D0EB030063EB010110BDC1F30A5210B56C
S315080006D0C1F3130140F2FF3341F480119A4201DA63
S315080006E0002010BD40F233439A42A2F2334203DCA3
S315080006F0524200F088F810BD904010BD00F000424C
S3150800070030F000400AD0C10D01F56071C0F3160043
S3150800071042EA0151C20840071143704700200146CA
S315080007207047000030B5041E71F1000404DB4FF079
S315080007300044404264EB0101141E73F1000405DB1A
S315080007401C464FF00043524263EB04038B4208BF3A
S31508000750824230BD30B5041E71F1000404DB4FF04F
S315080007600044404264EB0101141E73F1000405DBEA
S315080007701C464FF00043524263EB0403994208BFFC
S31508000780904230BD01F0004330B421F0004150EAF8
S31508000790010206D00A0DA2F56072C1F31301002A00
S315080007A002DC30BC00207047440F44EAC104C10093
S315080007B0E01830BC00EBC25000F047B830B50B4625
S315080007C0014600202022012409E021FA02F59D4273
S315080007D005D303FA02F5491B04FA02F52844151E47
S315080007E0A2F10102F1DC30BD202A04DB203A00FA2E
S315080007F002F1002070479140C2F1200320FA03F36A
S31508000800194390407047202A04DB203A21FA02F067
S315080008100021704721FA02F3D040C2F1200291402C
S31508000820084319467047202A06DBCB17203A41FAB7
S3150800083002F043EAE07306E041FA02F3D040C2F15F
S31508000840200291400843194670470029A8BF7047FF
S31508000850401C490008BF20F00100704710B4B0FAE8
S3150800086080FC00FA0CF050EA010404BF10BC704783
S3150800087049B1CCF1200421FA04F411FA0CF118BF9D
S31508000880012121430843A3EB0C01CB1D4FEA00616C
S315080008904FEA102042BF002010BC704700EBC3503F
S315080008A010440029A4BF10BC7047401C490008BF6B
S315080008B020F0010010BC704710B5141E73F1000437
S315080008C008DA401C41F1000192185B411A4301D134
S315080008D020F0010010BD2DE9F04D92469B4611B15E
S315080008E0B1FA81F202E0B0FA80F220329046FFF7C0
S315080008F07BFF04460F4640EA0A0041EA0B015346CD
S315080009005A46084313D0114653EA010019D0C8F1D4
S3150800091040025046FFF777FF05460E4650465946B1
S315080009204246FFF761FF084305D0012004E0204650
S315080009303946BDE8F08D0020054346EAE0762C43AB
S3150800094037430A986305E40AA0EB08000022FD0A6B
S3150800095044EA47540A3002D500200146E9E7010572
S3150800096010196941DDE9084500196941BDE8F04DEE
S31508000970A2E770B5C1F30A5201F000450024C1F39D
S31508000980130140F2FF3341F480119A4201DA002044
S3150800099070BD40F233439A42A2F2334203DC52421C
S315080009A0FFF731FF00E090402C43F1D0404270BD84
S315080009B0C1F30A52C1F3130140F2FF3341F4801127
S315080009C09A4202DA00200146704740F233439A42BF
S315080009D0A2F2334202DC5242FFF715BFFFF704BF0B
S315080009E0064C074D06E0E06840F0010394E807006E
S315080009F098471034AC42F6D3FFF7CAFBD072010809
S31508000A00F07201080EB540F2334102910021CDE99A
S31508000A1000110A460B46FFF75EFF03B000BD70B52E
S31508000A208C1810F8015B15F0070301D110F8013B8B
S31508000A302A1106D110F8012B03E010F8016B01F812
S31508000A40016B5B1EF9D12B0705D40023521E0DD46A
S31508000A5001F8013BFAE710F8013BCB1A921C03E0B8
S31508000A6013F8015B01F8015B521EF9D5A142D8D3F0
S31508000A70002070BD10B52DED028BB0EE408AB0EEA9
S31508000A80480A0CF04DFEBDEC028B10BD10B52DEDDD
S31508000A90028BB0EE408AF0EE608AF0EE680AB0EE9D
S31508000AA0480A0CF0D3FEBDEC028B10BD10B52DED37
S31508000AB0068BB0EE408A18EE100AFFF71FFE41ECCF
S31508000AC01A0BB0EE4A0AF0EE6A0A0CF0E9FFB0EE2D
S31508000AD0409AF0EE609A51EC190BFFF753FE00EEC0
S31508000AE0100ABDEC068B10BDF0EE400AF5EEC00A02
S31508000AF0F1EE10FA02DDB0EE600A7047B1EE600A58
S31508000B00FBE7000018B19FED020A80ED000A704766
S31508000B100000000018B1B3EE060A80ED000A70471F
S31508000B2070B52DED0C8B84B006460C4615469FED28
S31508000B30990AF0EE408A9FED970AB0EE409A9FED2B
S31508000B40950AF0EE40BA9FED930AF0EE409A9FEDB3
S31508000B50910AB0EE40AA0EB104B11DB904B0BDECBD
S31508000B600C8B70BD8C48FFF7CDFF8C48FFF7D2FF82
S31508000B708A48D0ED000A9FED8A1A60EE810AB0EE27
S31508000B80600A00F02DF9F0EE408A28EEA80AF0EE89
S31508000B90408A8248D0ED000AB0EE001A60EE810A5B
S31508000BA09FED7F1A60EE810AB0EE600A00F018F930
S31508000BB0B0EE409A29EE090AB0EE409ADFED790ABE
S31508000BC0B7EE000A00EEA80ADFED770A00EEC90ABA
S31508000BD0DFED760A20EE200A754880ED000A6E4899
S31508000BE090ED000ADFED730A80EE201AB7EE000AD0
S31508000BF031EE000A20EE000A6D48D0ED000A80EEBC
S31508000C00801A6D4880ED001A94ED000AB5EEC00A08
S31508000C10F1EE10FA0DD194ED010AB5EEC00AF1EE27
S31508000C2010FA06D194ED020AB5EEC00AF1EE10FAF2
S31508000C3046D09FED580AB0EE408A002001900290F7
S31508000C400390D4ED000A60EEA00A94ED011AD4EDE3
S31508000C50011A41EE210A94ED021AD4ED021A41EE68
S31508000C60210AB0EE600A00F0A9F8B0EE408A94EDC9
S31508000C70000A20EE080A8DED010A94ED010A20EE1D
S31508000C80080A8DED020A94ED020A20EE080A8DED97
S31508000C90030ADDED010AF1EE600AB0EE600AFFF71D
S31508000CA0E9FEF0EE409A9DED031AF0EE410A9DED3D
S31508000CB0021AB0EE410AFFF7E9FEB0EE40AA07E0D5
S31508000CC09FED340AF0EE409A9FED320AB0EE40AA44
S31508000CD095ED000AB5EEC00AF1EE10FA0DD195EDC4
S31508000CE0010AB5EEC00AF1EE10FA06D195ED020A30
S31508000CF0B5EEC00AF1EE10FA3CD0B0EE690A00F083
S31508000D006FF8B0EE408AB0EE690AFFF7CFFEB0EE94
S31508000D1040DAB0EE4A0A00F063F8F0EE40AAB0EE08
S31508000D204A0AFFF7C3FEB0EE40BA28EE2A0AD5ED06
S31508000D30010A20EE200AD5ED000A0DEE200A68EE1B
S31508000D400B0A95ED021A00EE810AB0EE40CA95ED3F
S31508000D50010A20EE0B0AD5ED020A0AEEE00AF0EEC9
S31508000D6040CAF0EE6C0AB0EE4C0AFFF78FFEF0EEC2
S31508000D7040BA03E09FED070AF0EE40BAB0EE4A1A11
S31508000D80F0EE690AB0EE6B0A30460EF0EBFB00BFD8
S31508000D90E4E60000000000008C0300209003002019
S31508000DA035FA8E3CC1BFAD3B9DF8C5362F7C1C413C
S31508000DB094030020506CC24A9803002010B52DED0C
S31508000DC0028BB0EE408AB0EE480A0DF0ADF8B7EEE9
S31508000DD0001AC1EE000AB0EE600ABDEC028B10BD27
S31508000DE010B52DED068BB0EE408A18EE100AFFF707
S31508000DF085FC41EC1A0BB0EE4A0AF0EE6A0A0CF0D2
S31508000E0067FFB0EE409AF0EE609A51EC190BFFF7C7
S31508000E10B9FC00EE100ABDEC068B10BD2DE9F041B9
S31508000E202DED028B9AB00546B0EE408A0E4617465F
S31508000E3098460020179018901990149015901690BF
S31508000E404DB146B13FB1B8F1000F04D0B5EEC08A36
S31508000E50F1EE10FA05D100201AB0BDEC028BBDE800
S31508000E60F08196ED000A8DED170A96ED010A8DEDD3
S31508000E70180A96ED020A8DED190A97ED000A8DED0E
S31508000E80140A97ED010A8DED150A97ED020A8DED04
S31508000E90160A17AA14A928460EF0B6F9402104A87E
S31508000EA0FFF738FA00200090019002900390002482
S31508000EB017A904A814F094FA00BF30E004A800EBC0
S31508000EC0041090ED000AD5ED000A20EE200A04A8C9
S31508000ED000EB0410D0ED010A95ED011A00EE810A27
S31508000EE004A800EB0410D0ED020A95ED021A00EEF4
S31508000EF0810A04A800EB0410D0ED030A95ED031A45
S31508000F0000EE810A20EE080AF0EE000A80EE201AAA
S31508000F10684600EB840080ED001A601CC4B2042CFD
S31508000F20CCDB002410E005EB840090ED000A68464F
S31508000F3000EB8400D0ED000A30EE200A05EB8400B1
S31508000F4080ED000A601CC4B2042CECDB284612F0C3
S31508000F5003FE012080E72DE9F04F09AC94E8F01074
S31508000F60DDE90E894FF0000A07E011F80AB0CAF168
S31508000F70020E00F80EB00AF1010ABAF1030F04DAFC
S31508000F8011F80AB0BBF1000FEFD190F803B02BF0BF
S31508000F90380B0BF1200B80F803B090F803B062F31E
S31508000FA0020B80F803B0B0F803B063F3891BA0F80E
S31508000FB003B090F804B064F3850B80F804B0B0F879
S31508000FC007B067F3090BA0F807B0B0F808B06CF3E0
S31508000FD08C0BA0F808B0B0F809B068F34F1BA0F85E
S31508000FE009B0B0F804B065F38E1BA0F804B0B0F8E9
S31508000FF005B066F3CF1BA0F805B0B0F80CB069F3DE
S315080010008C0BA0F80CB0B0F80DE0DDF840B06BF32F
S315080010104F1EA0F80DE0BDE8F08F000010B50122C4
S315080010201021024802F036FC10BD00000000024004
S3150800103010B500221021024802F02CFC10BD000059
S31508001040000002407047000010B501221146024810
S3150800105002F020FC10BD00000004024010B500227A
S315080010600121024802F016FC10BD000000040240EF
S31508001070704710B5044603E04FF47A7000F006F89E
S31508001080201EA4F101018CB2F6D110BD70B504463C
S315080010904FF47A7094FBF0F5284602F0C5FA70BD55
S315080010A010B50024FFF7CEFFFFF7E2FF0EF0DCFBDA
S315080010B004430EF069FC0443204610BD2DE9FC41AB
S315080010C005460E461746002000900190FFF7B0FF30
S315080010D0922000F0D1F806226946122000F0ACF8FA
S315080010E0FFF79CFF9DF80100000200B29DF8001072
S315080010F040EA010400EE104AB8EEC00A4C48D0EDAA
S31508001100000A20EE200A86ED000A9DF80300000278
S3150800111000B29DF8021040EA010400EE104AB8EE4B
S31508001120C00A4348D0ED000A20EE200A86ED010ADF
S315080011309DF80500000200B29DF8041040EA01047B
S3150800114000EE104AB8EEC00A3948D0ED000A20EE83
S31508001150200A86ED020AFFF781FF08226946002069
S3150800116000F06AF8FFF770FF9DF800000F2838D1E5
S315080011709DF80300000200B29DF8021040EA01043F
S3150800118000EE104AB8EEC00A2A48D0ED000A20EE52
S31508001190200A85ED000A9DF80500000200B29DF8B8
S315080011A0041040EA010400EE104AB8EEC00A2148CD
S315080011B0D0ED000A20EE200A85ED010A9DF8070009
S315080011C0000200B29DF8061040EA010400EE104A3B
S315080011D0B8EEC00A1748D0ED000A20EE200A85EDC1
S315080011E0020AFFF725FFA22000F046F80222694608
S315080011F0222000F021F8FFF711FF9DF80000C0003B
S315080012009DF8011040EA6114B4F5806F02DBA4F57D
S31508001210006004B200EE104AF8EEC00AB4EE001AF6
S31508001220B3EE070A00EE810A87ED000ABDE8FC81E5
S31508001230700100207401002070B506460C4615465C
S3150800124046F0800000F018F806E0552000F014F883
S315080012502070641C681EC5B2002DF6D170BD70B52D
S3150800126004460D4644F0800000F006F8552000F0CC
S3150800127003F8287070BD000001B582B04FF47A708B
S31508001280012301AA02A90090024804F0B3FB9DF8C5
S3150800129004000EBDB070002070B505460C46284601
S315080012A0FFF7EAFF2046FFF7E7FF70BD00BFFEE73E
S315080012B010B5024801F026FC10BD0000846F00201E
S315080012C00EB54FF400703549086000208860C86084
S315080012D00820086132480088000A8DF80400304862
S315080012E000788DF805002E48008F000A8DF8060054
S315080012F02B4890F838008DF807002948B0F8700098
S31508001300000A8DF80800264890F870008DF8090044
S315080013102348B0F8A800000A8DF80A00204890F87B
S31508001320A8008DF80B006B4601AA1E4801F0EFF9DC
S3150800133040F2FF10194908601948B0F8E000000AA1
S315080013408DF80400164890F8E0008DF8050014485A
S31508001350B0F81801000A8DF80600114890F818012F
S315080013608DF807000E48B0F85001000A8DF80800FD
S315080013700B4890F850018DF809000948B0F8880123
S31508001380000A8DF80A00064890F888018DF80B00C7
S315080013906B4601AA034801F0BAF90EBD7008002091
S315080013A0A0030020846F002010B5024801F0AAFBB4
S315080013B010BD0000AC6F00200EB54FF40070374921
S315080013C0086000208860C860082008613448B0F8C2
S315080013D06802000A8DF80400314890F868028DF812
S315080013E005002F48B0F8A002000A8DF806002C4820
S315080013F090F8A0028DF807002948B0F8D802000A2C
S315080014008DF80800264890F8D8028DF80900244877
S31508001410B0F81003000A8DF80A00214890F8100366
S315080014208DF80B006B4601AA1E4801F070F940F2D0
S31508001430FF101A4908601A48B0F84803000A8DF8E0
S315080014400400174890F848038DF805001448B0F8CA
S315080014508003000A8DF80600114890F880038DF87D
S3150800146007000F48B0F8B803000A8DF808000C48C2
S3150800147090F8B8038DF809000948B0F8F003000A97
S315080014808DF80A00064890F8F0038DF80B006B46B5
S3150800149001AA044801F03BF90EBD000088080020A7
S315080014A0A0030020AC6F002000BFFFF709FFFFF77D
S315080014B083FF06F0C3FA052011F060F9F5E7034645
S315080014C0042B15D007DC7BB1012B0ED0022B0DD0D7
S315080014D0032B12D10BE0202B0BD0212B0AD0222B69
S315080014E009D0232B09D107E008E007E006E005E06C
S315080014F004E003E002E001E000E000BF00BF0020D6
S31508001500704700207047000010B5002204490548BE
S3150800151009F0E7FD0449034809F0D4FD002010BD91
S31508001520D8810020FC760020D879002070B50446C2
S315080015300D46288881B220460CF076F821460448E4
S3150800154009F0C0FD024809F089FD002070BD0000C1
S31508001550FC76002010B503460C460021084610BD4F
S315080015602DE9F04104460D4600260A48D0F8BC721B
S31508001570D7F8140210B10120BDE8F0812A462146A9
S31508001580044809F0AEFD034809F05EFE06463046FB
S31508001590F2E70000FC76002000B59DB00F222D4929
S315080015A00DA8FEF79EFE0F222B4909A8FEF799FE05
S315080015B00F222A4905A8FEF794FE0F22284901A8FA
S315080015C0FEF78FFE27488189ADF80010807B8DF8DD
S315080015D002000F22234919A8FEF783FE052019A940
S315080015E00EC909F0D1F80A2011F0C8F80F221E49D1
S315080015F015A8FEF776FE0F221C4911A8FEF771FE04
S315080016000F221B490DA8FEF76CFE0F22194909A8DF
S31508001610FEF767FE0F22184905A8FEF762FE0F229D
S31508001620164901A8FEF75DFE15488189ADF8001038
S31508001630807B8DF802000F22114919A8FEF751FE8A
S31508001640072019A90EC909F09FF80A2011F096F883
S315080016501DB000BD2A1300201B1300200C13002008
S31508001660FD120020EE120020DD140020CE1400200A
S31508001670BF140020B0140020A114002092140020EA
S31508001680831400200A48807C0A494870084890ED6F
S31508001690050AB5EEC00AF1EE10FA02D12C20087040
S315080016A004E00348007E401E0249087070470000A7
S315080016B07C1A0020981000202DE9F04FDDE90DC8AE
S315080016C0DDF83C90DDE90B47DDE909564FF0000AE5
S315080016D007E011F80AB0CAF1020E00F80EB00AF1D6
S315080016E0010ABAF1030F04DA11F80AB0BBF1000FC8
S315080016F0EFD190F803B02BF0380B0BF1380B80F8CC
S3150800170003B090F803B062F3020B80F803B0B0F8A8
S3150800171003B063F3891BA0F803B090F804B065F32F
S31508001720850B80F804B0B0F807B067F3090BA0F88A
S3150800173007B0B0F808B06CF38C0BA0F808B0B0F896
S3150800174009B068F34F1BA0F809B0B0F804B066F307
S315080017508E1BA0F804B0B0F805B064F3CF1BA0F850
S3150800176005B04FF0000A09E099F800B000F10F0E35
S315080017700EF80AB009F101090AF1010AA245F3D3E4
S31508001780BDE8F08F0FB410B5C4B04FF6FF700590E2
S31508001790302246A906A8FEF7A4FD03ACA5208DF8BD
S315080017A00C003320ADF80D002F4800788DF80F0097
S315080017B0FF220421204600F007FF8DF8100040F2B2
S315080017C00130ADF811004FF48870ADF804002748D1
S315080017D00088ADF8060026480088ADF8080000BF66
S315080017E0BDF814200721204600F0D4FE059001AC70
S315080017F0BDF814200621204600F0CCFE059006AC64
S31508001800BDF814202D21204600F0C4FE059003984B
S315080018101290BDF81000ADF84C009DF812008DF836
S315080018204E000198CDF84F00BDF80800ADF85300FA
S315080018302D2206A90DF15500FEF753FD12A8BDF895
S315080018401410ADF882100B4908683C2212A905F05D
S3150800185063FB05480078401C03490870002044B023
S3150800186010BC5DF814FB0000300000203200002098
S31508001870340000201C0F002000BF0EF063F905207D
S3150800188010F07CFFF9E70000F0B52DED088B87B066
S31508001890B0EE408ADFEDF40A78EE200AB0EE600A70
S315080018A00EF09CFFB1EE400AF0EE408A0CF074FA96
S315080018B0DFEDEE0A9FEDEE1A41EE000ABCEEE00AF5
S315080018C010EE104ADFEDE80A78EE200AB0EE600A5C
S315080018D00EF084FFB1EE400AF0EE408A0CF044F9AF
S315080018E0DFEDE40A9FEDE21A41EE000ABCEEE00ADB
S315080018F010EE105ADFEDE00A78EE200AB0EE600A24
S315080019000EF06CFFB1EE400AF0EE408A0CF044FA95
S31508001910DFEDD60A9FEDD61A41EE000ABCEEE00AC4
S3150800192010EE106ADFEDD40A78EE200AB0EE600AEF
S315080019300EF054FFB1EE400AF0EE408A0CF014F9AE
S31508001940DFEDCC0A9FEDCA1A41EE000ABCEEE00AAA
S3150800195010EE107A0220052103230246CDE902760D
S31508001960CDE90454CDE90010C4A1C54806F06CFAC7
S3150800197018EE100AFEF7C2FE41EC1B0B9FEDC10BD9
S3150800198053EC102BFEF7D1FC41EC1A0BFEF7FAFECE
S3150800199009EE100AB0EE490A0EF020FFB1EE400A31
S315080019A0F0EE408A0CF0F8F9DFEDB00A9FEDB01AB8
S315080019B041EE000ABCEEE00A10EE104A18EE100AD4
S315080019C0FEF79CFE41EC1B0B9FEDAE0B53EC102B68
S315080019D0FEF7ABFC41EC1A0BFEF7D4FE09EE100A33
S315080019E0B0EE490A0EF0FAFEB1EE400AF0EE408A71
S315080019F00CF0BAF8DFED9F0A9FED9D1A41EE000A3A
S31508001A00BCEEE00A10EE105ADFEDA00A78EE200AC6
S31508001A10B0EE600A0EF0E2FEB1EE400AF0EE408A41
S31508001A200CF0BAF9DFED910A9FED911A41EE000A22
S31508001A30BCEEE00A10EE106ADFED940A78EE200A92
S31508001A40B0EE600A0EF0CAFEB1EE400AF0EE408A29
S31508001A500CF08AF8DFED870A9FED851A41EE000A39
S31508001A60BCEEE00A10EE107A022005210323024696
S31508001A70CDE90276CDE90454CDE9001084A1854864
S31508001A8006F0E2F9DFED810A78EE200AB0EE600A88
S31508001A900EF0A4FEB1EE400AF0EE408A0CF07CF996
S31508001AA0DFED720A9FED721A41EE000ABCEEE00AFB
S31508001AB010EE104ADFED750A78EE200AB0EE600ADD
S31508001AC00EF08CFEB1EE400AF0EE408A0CF04CF8AF
S31508001AD0DFED680A9FED661A41EE000ABCEEE00AE1
S31508001AE010EE105AF1EE0A0A78EE200AB0EE600AF5
S31508001AF00EF074FEB1EE400AF0EE408A0CF04CF996
S31508001B00DFED5A0A9FED5A1A41EE000ABCEEE00ACA
S31508001B1010EE106AF1EE0A0A78EE200AB0EE600AB4
S31508001B200EF05CFEB1EE400AF0EE408A0CF01CF8AE
S31508001B30DFED500A9FED4E1A41EE000ABCEEE00AB0
S31508001B4010EE107A022000900323024652A1CDE936
S31508001B500276CDE904540190504806F075F9F1EE85
S31508001B600A0A78EE200AB0EE600A0EF037FEB1EEE9
S31508001B70400AF0EE408A0CF00FF9DFED3C0A9FEDC3
S31508001B803C1A41EE000ABCEEE00A10EE104AF1EEED
S31508001B900A0A78EE200AB0EE600A0EF01FFEB1EED1
S31508001BA0400AF0EE408A0BF0DFFFDFED320A9FEDC8
S31508001BB0301A41EE000ABCEEE00A10EE105ADFEDCC
S31508001BC02A0A78EE200AB0EE600A0EF007FEB1EE99
S31508001BD0400AF0EE408A0CF0DFF8DFED240A9FEDAC
S31508001BE0241A41EE000ABCEEE00A10EE106ADFED98
S31508001BF01E0A78EE200AB0EE600A0EF0EFFDB1EE8E
S31508001C00400AF0EE408A0BF0AFFFDFED1A0A9FEDAF
S31508001C10181A41EE000ABCEEE00A10EE107A02200D
S31508001C20052103230246CDE90276CDE90454CDE920
S31508001C3000101BA11B4806F007F978204FF496619F
S31508001C403222CDE90212CDE904100220062104232E
S31508001C500122CDE9001014A1144806F0F5F807B0E2
S31508001C60BDEC088BF0BD00000000C14200004842F0
S31508001C70314662420000964400803A4330313900CA
S31508001C80EE120020000000000050674000408A4322
S31508001C9030323000FD120020303231000C130020A3
S31508001CA0303232001B130020303233002A13002052
S31508001CB010B5024801F0D8FA10BD0000DC75002006
S31508001CC010B5024801F0D0FA10BD000008710020D6
S31508001CD010B5024801F0C8FA10BD00003C76002095
S31508001CE010B5024801F0C0FA10BD00006871002066
S31508001CF010B5024801F0B8FA10BD00001C750020A6
S31508001D0010B5024801F0B0FA10BD00009C7600201C
S31508001D1010B5024801F0A8FA10BD00007C75002035
S31508001D200146087810381823B0FBF3F20848805C9F
S31508001D30C865032A05D908686FF30900001D886578
S31508001D4003E008686FF309008865886D704700002E
S31508001D50A46E0108014600208A6A8B69CBB932B1A4
S31508001D60012A0DD0022A03D0032A10D10EE000BFA3
S31508001D70CB6A03F08073B3F1807F00D1012007E0BE
S31508001D80CB6AB3F1C07F00D1012001E000E000BFBB
S31508001D9034E08B69B3F5005F1AD132B1012A07D056
S31508001DA0022A03D0032A11D10AE000BF01200EE05F
S31508001DB0CB6A03F08073B3F1807F00D1012006E07F
S31508001DC0CB6AB3F1C07F00D1012000E000BF15E067
S31508001DD032B1012A05D0022A04D0032A0CD103E025
S31508001DE000BF00BF012008E0CB6A03F08073B3F19F
S31508001DF0807F00D1012000E000BF00BF704730B5EA
S31508001E000468246824F4802405682C6004686360E8
S31508001E108468402C04D10468A2600468E16003E089
S31508001E200468A1600468E26030BD000008B5474850
S31508001E300068006800F0200060B100BF0020009034
S31508001E404248006800680090404800684068009072
S31508001E5000BF7AE03E48006800F01000002874D001
S31508001E6000BF002000903948006800680090374895
S31508001E7000684068009000BF00BF00F08BF9354845
S31508001E800068006800F4002078BB324800680068E3
S31508001E9020F001002F49096808602E48006840684C
S31508001EA0C0F124002C49088024202A490968486082
S31508001EB028480068006840F4002026490968086038
S31508001EC024480068006840F0010022490968086053
S31508001ED021480088122838D1204A2149214812F081
S31508001EE003FF204812F0D2FE2FE0FFE719480068EA
S31508001EF0006820F00100174909680860154800685D
S31508001F004068C0F124001449088024201149096852
S31508001F1048601548806A20F40020134988620D48F5
S31508001F200068006840F001000A49096808600A4824
S31508001F300088122809D1094A09490A48243012F0AA
S31508001F40D3FE0848243012F0A1FE08BD9474002080
S31508001F5000480040DC75002002000020B60800207A
S31508001F60A0080020CC08002000600240704700004E
S31508001F7030B52DED048B89B0B0EE408A002007906D
S31508001F80089018EE104A2046FEF7B8FB41EC190BEC
S31508001F908DED009B0FA2062107A80BF05BFB0546FB
S31508001FA007A84FF43E715A220223CDE90332CDE940
S31508001FB005100620122104220523CDE900210290EE
S31508001FC0022206A10648FFF777FB09B0BDEC048B91
S31508001FD030BD000020256C6600000000303332005A
S31508001FE0CF13002010B5012001F04CFB10BD10B531
S31508001FF0202001F047FB802001F044FB10BD00BF04
S3150800200000F006F8642010F0B9FBF9E77047000005
S3150800201010B53848D0F8840037490968884207D18E
S315080020200120364908710121324880F8881006E0F7
S3150800203000203249087100212E4880F888102D4862
S31508002040D0F884002C490860002000F059F80120D7
S3150800205000F056F8022000F053F8032000F050F87C
S31508002060244890F86E0058B9224890F86F0038B99D
S31508002070204890F8700018B91E4890F8710018B1F9
S3150800208001201E49487002E000201C4948700420BF
S3150800209000F036F8102000F033F8164890F8720071
S315080020A018B9144890F87E0018B101201349087031
S315080020B002E00020114908700B2000F021F80D20DD
S315080020C000F01EF8062000F01BF80A4890F8740085
S315080020D038B9084890F8790018B9064890F87B008E
S315080020E018B101200549887002E00020034988706C
S315080020F010BD0000BC1000202C000020541A00203F
S3150800210070B59CB00446214668460EF0D9FC3822C4
S3150800211069460EA8FEF7E5F8BDF83E0085B22146E9
S3150800212068460EF0CDFC382269460EA8FEF7D9F8A7
S31508002130BDF83A60164830F81400A8420ED1144883
S315080021402C3030F81400B04208D111485830005DE0
S31508002150401CC1B20E485830015505E000210C4814
S315080021605830015516300155094820F814502C30BE
S3150800217020F814602C30005D032806DD0021044891
S31508002180583001550121163001551CB070BD0000AC
S31508002190BC1000200348D0F88400401C0149C1F84F
S315080021A084007047BC10002006F004FE00BF0B48F0
S315080021B010F010FA4FF4FA7010F0E0FA084810F030
S315080021C009FA4FF4FA7010F0D9FA4FF0FF2010F020
S315080021D001FA4FF4FA7010F0D1FAE8E7FF0000FFB1
S315080021E00000FFFF2DED108BAAB09FEDDA0AB0EEC6
S315080021F0408A9FEDD80AB0EE40FA00249FEDD52A12
S31508002200DFEDD51AB2EE041ADFEDD20AB0EE000AF7
S315080022101CA810F06DFC00BF052010F0AFFACF48DF
S315080022208079012800D0F7E704200EF00FFA102075
S315080022300EF00CFACA48006801280DD19FEDC52A90
S31508002240DFEDC51AB3EE0E1ADFEDC20AB1EE040AC7
S315080022501CA810F04DFC0CE09FEDBE2ADFEDBE1A5F
S31508002260B2EE041ADFEDBB0AB0EE000A1CA810F0A5
S315080022703FFCBA4890F8230001282FD11021684660
S315080022800EF01EFC382269460EA8FEF72AF8B54855
S3150800229090ED060A10EE101A0846FEF72FFA41ECE2
S315080022A01D0B9DED141BB0EE410AF0EE610A53ECCE
S315080022B0102BFEF7DEF841EC1C0B81F0004141ECD7
S315080022C01B0B9FEDA90B53EC102BFEF7D5F841EC31
S315080022D01A0BFEF7FAF9A649486006E09F4890F8F7
S315080022E0230010B90020A2494860042168460EF070
S315080022F0E7FB382269460EA8FDF7F3FF994890EDEB
S31508002300170A10EE101A0846FEF7F8F941EC1C0BEE
S315080023109DED141BB0EE410AF0EE610A53EC102B4A
S31508002320FEF7A7F841EC1B0B81F0004141EC1A0BB4
S31508002330FEF728FA08EE100AB0EE48FA8D488088AB
S3150800234018B99FED840AB0EE40FAB0EE4F0A0EF0C7
S3150800235045FAB0EE40AA0BF01FFDB0EE409AB0EE7B
S315080023604F0A0EF03BFAB0EE40AA0BF0FDFBF0EE7A
S31508002370408A7A48D0ED020AB0EE680A20EE800A52
S31508002380D0ED030AF0EE409A49EE609A90ED020A03
S3150800239060EE090A90ED031AB0EE680AB0EE60EA3C
S315080023A001EE00EA90ED040AF0EE40EABDEEC80A36
S315080023B010EE100A002801DB014600E04142B42273
S315080023C091FBF2F49FED6C0AB4EEC08AF1EE10FAB6
S315080023D019DD04F0010058B1601CB421484300EE31
S315080023E0100AB8EE400A38EE400AB0EE408A0AE013
S315080023F0B42104FB01F000EE100AB8EE400A38EEEC
S31508002400400AB0EE408A9FED5D0AB4EEC08AF1EE4E
S3150800241010FA19D204F0010058B1601CB4214843DF
S3150800242000EE100AB8EE400A30EE080AB0EE408A0E
S315080024300AE0B42104FB01F000EE100AB8EE400AE7
S3150800244030EE080AB0EE408A18EE100AFEF756F982
S3150800245041EC1B0BB0EE4B0AF0EE6B0A0BF02CFCB2
S31508002460B0EE40AAF0EE60AA9FED450B53EC102B98
S3150800247051EC1A0BFEF76EF90DD2B0EE480A0EF0C3
S31508002480ADF9B0EE40AADFED330A1CA810F028FA21
S31508002490F0EE40EA03E09FED2F0AF0EE40EA2F48FF
S315080024A090ED060A10EE101A0846FEF727F941ECD9
S315080024B01B0BB0EE4B0AF0EE6B0A0BF0FDFBB0EE11
S315080024C040AAF0EE60AA9FED300B53EC102B51ECAE
S315080024D01A0BFEF73FF90AD2224890ED140A1F4854
S315080024E0D0ED060A30EE200A1E4880ED140A1B4875
S315080024F090ED050A10EE101A0846FEF7FFF841ECB3
S315080025001B0BB0EE4B0AF0EE6B0A0BF0D5FBB0EEE8
S3150800251040AAF0EE60AA9FED1C0B53EC102B51EC71
S315080025201A0BFEF717F90AD20E4890ED010A0B4866
S31508002530D0ED050A30EE600A0A4880ED010A144813
S31508002540C0ED009A80ED01EAC0ED02EA01200DF027
S31508002550F5FE61E60000000000004842541A00201B
S3150800256050000020401600200000000000005940DE
S31508002570DC0D0020A008002000003443000034C30E
S31508002580000000403333D33F000000000000000085
S31508002590EC14002030B5034613B94FF6FF7030BD72
S315080025A009E013F8014B82EA0400C0B2054D35F87C
S315080025B0100080EA2222081EA1F10101F1D110467D
S315080025C0EDE700008E6C010830B5034605E013F808
S315080025D0010B80EA02040448025D081EA1F101010C
S315080025E0F5D1104630BD00008D6B010870B50A485C
S315080025F00468001D0568001D0668344454B10822A5
S315080026000649204605F0DAF904220449103128461D
S3150800261005F0D4F970BD0000107AFF1F7203002080
S3150800262010B501F03DF910BD00BF0EF0F1FB0FF03B
S31508002630B5F812F06DFC12F0F3FD1148807F68B111
S31508002640104890ED110A80ED000A90ED120A80ED0F
S31508002650010A90ED130A80ED020A0CE09FED0A0AC2
S31508002660084880ED000A9FED080A80ED010A9FEDF3
S31508002670060A80ED020A012010F080F8D5E700006E
S31508002680541A0020E025002000000000002013490D
S31508002690C871887100211148417780F820100121FE
S315080026A080F821109FED0E0A80ED050A9FED0C0AB1
S315080026B080ED060A9FED0A0A80ED020A9FED080AD8
S315080026C080ED030A9FED060A80ED040A0021817752
S315080026D0C1770177012180F823107047541A00202A
S315080026E00000000010B5024692F82030012B01D0F8
S315080026F0022B06D1106840690843146860610020FF
S3150800270010BD506A40F4802050620120F8E7F0B509
S3150800271004460D461E4694F8207020688368A8680B
S3150800272000B900E000BF012F01D0022F7CD103F0D1
S31508002730806030B903F0006018B903F080500028B3
S3150800274073D0C3F30161022905D9606A40F4000019
S3150800275060620120F0BD012088403060A86860B939
S31508002760B5F800C0E86840EA4C5C206800F5C0701F
S3150800277000EB0110C0F800C00FE0D5E901C040EA3F
S31508002780CC00D5F80CC040EA0C00D4F800C00CF513
S31508002790C07C0CEB011CCCF80000D5F810C02068F2
S315080027A000F5C07000EB0110C0F804C0287D0128B0
S315080027B00ED1206800F5C07000EB0110406840F4A7
S315080027C0807C206800F5C07000EB0110C0F804C0DA
S315080027D0D079000692F806C040EA0C4092F805C087
S315080027E040EA0C2C10794CEA000C206800F5C07001
S315080027F000EB0110C0F80CC0D078000692F802C0B1
S3150800280040EA0C4092F801C040EA0C2092F800C059
S3150800281040EA0C00D4F800C00CF5C07C0CEB011C97
S31508002820CCF80800206801E016E00FE000F5C0705B
S3150800283000EB0110006840F0010C206800F5C0703C
S3150800284000EB0110C0F800C0002083E7606A40F47E
S315080028500010606201207DE7606A40F480206062B3
S31508002860012077E7F0B504460A46216894F8205017
S31508002870012D01D0022D7ED1424901F5007108686B
S3150800288040F001000860086820F47C500860086879
S31508002890566A40EA06200860107D00F01F060120EF
S315080028A000FA06F3C8699843C861A1F50071D069B2
S315080028B0C8B9D1F80C029843C1F80C02908880B2C6
S315080028C0968940EA064601F51070576940F8376060
S315080028D0108880B2168940EA064601F510705769D5
S315080028E000EBC7004660D069012819D1D1F80C025F
S315080028F01843C1F80C02908880B2168840EA06464A
S3150800290001F51070576940F83760908980B21689CA
S3150800291040EA064601F51070576900EBC7004660A5
S31508002920906928B9D1F804029843C1F8040204E072
S31508002930D1F804021843C1F80402106928B9D1F87D
S3150800294014029843C1F8140204E0D1F8140218439B
S31508002950C1F81402106A012804D1D1F81C021843E0
S31508002960C1F81C02D1F8000220F00100C1F80002EB
S315080029700020F0BDFFE7606A40F480206062012015
S31508002980F7E7000000640040704770B5044694F805
S315080029902050012D01D0022D7DD151B92068C06883
S315080029A000F0030080B9606A40F4001060620120FC
S315080029B070BD2068006900F0030028B9606A40F419
S315080029C0001060620120F3E7206800F5D87000EB7C
S315080029D00110006800F004009060906840B9206813
S315080029E000F5D87000EB01100068400D106007E094
S315080029F0206800F5D87000EB01100068C008506028
S31508002A00206800F5D87000EB0110006800F002009D
S31508002A10D060206800F5D87000EB0110406800F01F
S31508002A200F001061206800F5D87000EB01104068AF
S31508002A3000F47F40000A9061206800F5D87000EB2A
S31508002A4001104068000C5061206800F5D87000EB52
S31508002A50011080681870206800F5D87000EB011026
S31508002A60806800F47F40000A5870206800F5D87026
S31508002A7000EB0110806800F47F00000C9870206855
S31508002A8000F5D87000EB01108068000ED870206839
S31508002A9000F5D87000E02FE000EB0110C06818714F
S31508002AA0206800F5D87000EB0110C06800F47F407C
S31508002AB0000A5871206800F5D87000EB0110C0684C
S31508002AC000F47F00000C9871206800F5D87000EBC0
S31508002AD00110C068000ED87131B92068C06840F08E
S31508002AE020002668F06005E02068006940F02000B4
S31508002AF02668306100205BE7606A40F480206062E7
S31508002B00012055E72DE9F05F04460025206846694F
S31508002B102068D0F80490206887682068D0F80CA050
S31508002B202068D0F810B02068D0F8188006F00100A8
S31508002B30002855D007F00100C0B10120216888603F
S31508002B4007F0020018B1204600F0F3FA0EE007F08D
S31508002B50040010B145F4006508E007F0080010B15C
S31508002B6045F4805502E0204600F0E2FA07F480704A
S31508002B70C8B14FF480702168886007F4007018B1F6
S31508002B80204600F0D8FA0EE007F4806010B145F44C
S31508002B90005508E007F4006010B145F4804502E0EE
S31508002BA0204600F0C7FA07F48030C8B14FF48030E9
S31508002BB02168886007F4003018B1204600F0BDFA95
S31508002BC00EE007F4802010B145F4004508E007F44C
S31508002BD0002010B145F4803502E0204600F0ACFA3A
S31508002BE006F0080038B10AF0100020B145F4007567
S31508002BF010202168C86006F0040040B10AF00800F9
S31508002C0028B108202168C860204600F00DFA06F0B1
S31508002C10020038B12068C06800F0030010B12046F1
S31508002C2000F004FA06F0400038B10BF0100020B1AD
S31508002C3045F4806510202168086106F0200040B13F
S31508002C400BF0080028B1082021680861204600F02A
S31508002C503DFA06F0100038B12068006900F003005C
S31508002C6010B1204600F033FA06F4003040B109F0FE
S31508002C70100028B1102021684860204600F028FA84
S31508002C8006F4803040B109F0080028B10820216810
S31508002C904860204600F052FA06F4004088B309F06E
S31508002CA0040078B306F4807020B108F0010008B17A
S31508002CB045F0010506F4007020B108F0020008B1DD
S31508002CC045F0020506F4806020B108F0040008B15A
S31508002CD045F0040506F40060A0B108F0700088B15C
S31508002CE008F07000402817D006DC10280BD02028E2
S31508002CF00CD0302819D10CE0502810D0602814D1F7
S31508002D0010E01DE019E045F008050FE045F0100554
S31508002D100CE045F0200509E045F0400506E045F0E1
S31508002D20800503E045F4807500E000BF00BF206819
S31508002D30806920F070002168886104202168486055
S31508002D402DB1606A284360622046FFF71DFEBDE884
S31508002D50F09F70B504460CB9012070BD94F82000A8
S31508002D6010B9204600F0B0F82068006840F001006D
S31508002D702168086000F094FD05460DE000F090FD1E
S31508002D80401B0A2808D9606A40F4003060620520B2
S31508002D9084F820000120E0E72068406800F0010080
S31508002DA00028EBD02068006820F00200216808603F
S31508002DB000F076FD05460DE000F072FD401B0A287E
S31508002DC008D9606A40F400306062052084F8200063
S31508002DD00120C2E72068406800F002000028EBD115
S31508002DE0207E012806D12068006840F0800021680E
S31508002DF0086005E02068006820F080002168086007
S31508002E00607E012806D12068006840F040002168ED
S31508002E10086005E02068006820F040002168086026
S31508002E20A07E012806D12068006840F020002168AD
S31508002E30086005E02068006820F020002168086026
S31508002E40E07E012806D12068006820F0100021687D
S31508002E50086005E02068006840F0100021680860F6
S31508002E60207F012806D12068006840F00800216804
S31508002E70086005E02068006820F0080021680860FE
S31508002E80607F012806D12068006840F004002168A8
S31508002E90086005E02068006820F0040021680860E2
S31508002EA0D4E9020108432169084361690843616856
S31508002EB0491E08432168C86100206062012084F821
S31508002EC02000002049E7000010B586B0044614210A
S31508002ED001A8FDF71FFA4E492068884241D14D489E
S31508002EE00068401C4B4908600846006801280FD155
S31508002EF000BF002000904848006840F0007046492E
S31508002F0008600846006800F00070009000BF00BF27
S31508002F1000BF0020009040481038006840F00800C4
S31508002F203D49103908600846006800F0080000901E
S31508002F3000BF00BF032001900220029000200390EA
S31508002F40032004900920059001A9344800F0A8FB45
S31508002F5000220521142001F04DF9142001F03AF958
S31508002F6054E02F492068884250D100BF00200090C5
S31508002F702948006840F080602749086008460068CC
S31508002F8000F08060009000BF00BF22480068401C27
S31508002F90204908600846006801280FD100BF0020B4
S31508002FA000901D48006840F000701B4908600846FC
S31508002FB0006800F00070009000BF00BF00BF00204E
S31508002FC0009015481038006840F002001249103980
S31508002FD008600846006800F00200009000BF00BFC5
S31508002FE060200190022002900020039003200490A4
S31508002FF00920059001A90B4800F052FB0022052183
S31508003000402001F0F7F8402001F0E4F806B010BDC2
S3150800301000640040E002002040380240000C0240F4
S3150800302000680040000402407047000010B58AB0EE
S31508003030044601AB03AA00212046FFF7A6FC40F28E
S3150800304007310398884204D101A80CF049FD0AB05B
S3150800305010BD40F241110398884203D101A804F03B
S31508003060CDFCF4E71748844215D10399A1F2012152
S31508003070C1EBC101144A02EBC10001A90DF030FDF4
S315080030800399A1F20121C1EBC1010F4A02EBC1006C
S315080030900FF02CFF14E00399A1F5FB71C1EBC101F8
S315080030A0094A02EBC10001A90DF01AFD0399A1F521
S315080030B0FB71C1EBC101044A02EBC1000FF016FF18
S315080030C000BFC4E7846F0020A00300207047704744
S315080030D0704770B5044694F82000012822D10220D2
S315080030E084F820002068006820F001002168086044
S315080030F000F0D6FB05460DE000F0D2FB401B0A287F
S3150800310008D9606A40F400306062052084F820001F
S31508003110012070BD2068406800F001000028EBD14E
S315080031206062F6E7606A40F4002060620120F0E71A
S31508003130704770477047704770477047704710B5BB
S3150800314004460CB9012010BD607920B90020207111
S31508003150204600F005F8012060710020F3E7000022
S3150800316008B50A4A016891420FD100BF00210091B3
S315080031700749096841F48051054A116011460968F2
S3150800318001F48051009100BF00BF08BD0030024025
S315080031903038024070B50446A56D00F081FB06463E
S315080031A094F83500022808D08020606500BF00200A
S315080031B084F8340000BF012070BD2068006820F044
S315080031C01600216808602068406920F080002168A0
S315080031D04861206C08B9A06C28B12068006820F006
S315080031E00800216808602068006820F0010021684E
S315080031F0086010E000F054FB801B05280BD920203E
S315080032006065032084F8350000BF002084F8340088
S3150800321000BF0320D0E72068006800F001000028FE
S31508003220E8D194F85C103F208840A860012084F813
S31508003230350000BF002084F8340000BF00BFBBE79C
S31508003240014691F83500022803D080204865012000
S315080032507047052081F835000868006820F00100ED
S315080032600A6810600020F3E7F8B5044600200090CD
S315080032708C4800684FF41651B0FBF1F7A56D2E681F
S3150800328094F85C1008208840304098B1206800689F
S3150800329000F0040070B12068006820F0040021687E
S315080032A0086094F85C1008208840A860606D40F0BB
S315080032B00100606594F85C1001208840304068B1D0
S315080032C02068406900F0800040B194F85C10012045
S315080032D08840A860606D40F00200606594F85C1054
S315080032E004208840304068B12068006800F0020079
S315080032F040B194F85C1004208840A860606D40F0E6
S315080033000400606594F85C1010208840304078B35B
S315080033102068006800F0080050B394F85C1010208C
S315080033208840A8602068006800F4802080B1206882
S31508003330006800F4002028B9206CC8B12046216C2A
S31508003340884715E0A06C98B12046A16C88470FE025
S315080033502068006800F4807028B92068006820F0AA
S31508003360080021680860206C10B12046216C884747
S3150800337094F85C10202088403040002865D02068EA
S31508003380006800F0100000285FD094F85C10202038
S315080033908840A86094F83500052828D12068006878
S315080033A020F01600216808602068406920F0800037
S315080033B021684861206C08B9A06C28B120680068AB
S315080033C020F008002168086094F85C103F208840C7
S315080033D0A860012084F8350000BF002084F8340076
S315080033E000BF206D10B12046216D8847F8BD2068C2
S315080033F0006800F4802080B12068006800F400208E
S3150800340028B9606C10B12046616C88471DE0E06BF6
S31508003410D8B12046E16B884717E02068006800F4B9
S31508003420807068B92068006820F01000216808607C
S31508003430012084F8350000BF002084F8340000BF5E
S31508003440E06B10B12046E16B8847606D38B3606D5C
S3150800345000F00100F0B1052084F835002068006806
S3150800346020F001002168086000BF0098401C009009
S31508003470B84200D905E02068006800F0010000287D
S31508003480F3D100BF012084F8350000BF002084F87E
S31508003490340000BFE06C10B12046E16C884700BFDD
S315080034A0A4E70000240300202DE9F0410446002586
S315080034B000F0F6F9074614B90120BDE8F081606A04
S315080034C000B100BF022084F8350000BF002084F850
S315080034D0340000BF2068006820F0010021680860F9
S315080034E00AE000F0DDF9C01B052805D92020606533
S315080034F0032084F83500E0E72068006800F0010042
S315080035000028EED12068056821480540D4E9010164
S315080035100843E16808432169084361690843A169CA
S315080035200843E1690843216A08430543606A042899
S3150800353003D1D4E90B0108430543206805602068D8
S31508003540456925F00705606A0543606A04280DD1B8
S31508003550A06A0543E06A48B12046FEF7FBFB28B19E
S3150800356040206065012084F83500A6E7206845619B
S315080035702046FEF7D5FB064694F85C103F208840A7
S31508003580B06000206065012084F83500002094E7CB
S315080035903F8010F02DE9F04704460D4616461F46B3
S315080035A04FF00008D4F8589000BF94F8340001286A
S315080035B002D10220BDE8F087012084F8340000BF5C
S315080035C094F83500012825D1022084F8350000201A
S315080035D060653B46324629462046FEF710FC94F8BD
S315080035E05C103F208840C9F808002068006840F051
S315080035F0160021680860206C28B12068006840F031
S315080036000800216808602068006840F00100216809
S31508003610086006E000BF002084F8340000BF4FF0C1
S3150800362002084046C6E7000070B5044600F038F9BF
S3150800363006462546681C10B104480078054400BFB4
S3150800364000F02EF9801BA842FAD370BDD0010020E5
S3150800365070B50546012D11D1FEF7E2FF044608486C
S315080036600068201AC82803D344F62060844202D989
S315080036700348046070BD0248046000BF00BFF9E754
S315080036800400002010B5044604480068204020B114
S31508003690024804602046FFF7DBFF10BD143C0140DA
S315080036A0F8B502460B460025002400200021D6E086
S315080036B0012606FA01F51E6806EA0504AC4274D12D
S315080036C01E7906F00306012E04D01E7906F00306BD
S315080036D0022E13D190684F000326BE40B0434F0018
S315080036E0DE68BE4030439060506801268E40B04385
S315080036F01E79C6F300168E40304350601E7906F0D8
S315080037000306032E09D0D0684F000326BE40B043F7
S315080037104F009E68BE403043D0601E7906F003060F
S31508003720022E13D1CF0802F1200656F827004E07BD
S31508003730F70E0F26BE40B0434F07FF0E1E69BE4068
S315080037403043CF0802F1200646F8270010684F00DC
S315080037500326BE40B0431E7906F003064F00BE405E
S31508003760304310605E6806F44036002E76D000BFFF
S31508003770002600963C4E366846F480463A4F3E6030
S315080037803E46366806F48046009600BF00BF374EB0
S315080037908F0856F827008E07370F0F26BE40B0430E
S315080037A0334EB24202D1002624E057E0314EB242EF
S315080037B001D101261EE0304EB24201D1022619E09F
S315080037C02E4EB24201D1032614E02D4EB24201D14B
S315080037D004260FE02B4EB24201D105260AE02A4EF6
S315080037E0B24201D1062605E0284EB24201D107268B
S315080037F000E008268F073F0FBE4030431B4E8F0858
S3150800380046F82700224E3068A0435E6806F4801604
S3150800381006B120431E4E3060361D3068A0435E68F0
S3150800382006F4001606B12043194E361D3060184EB0
S31508003830361F3068A0435E6806F4003606B120439A
S31508003840134E361F3060361F3068A0435E6806F494
S31508003850803606B120430E4E083E3060491C1029BA
S31508003860FFF426AFF8BD000044380240083801408E
S31508003870000002400004024000080240000C02401A
S31508003880001002400014024000180240001C0240CA
S31508003890083C01400AB1816101E00B04836170476D
S315080038A00148006870470000C801002070B504464A
S315080038B00CB9012070BD94F83D0028B9002084F8A1
S315080038C03C00204600F006FB242084F83D002068D2
S315080038D0006820F00100216808602068006840F44C
S315080038E00040216808602068006820F400402168CC
S315080038F0086001F0A9FC05465C496068884206D85C
S315080039005B48854201D2012007E0002005E05948BE
S31508003910854201D2012000E00020012800D1C9E734
S315080039205548B5FBF0F62068406820F03F00304364
S31508003930216848604D496068884201D8701C07E0D4
S315080039404FF4967070434FF47A71B0FBF1F0401C57
S315080039502168096A21F03F01084321680862434942
S315080039606068884214D8681E61684900B0FBF1F0A7
S31508003970401CC0F30B00042801D204203DE0681E59
S3150800398061684900B0FBF1F0401CC0F30B0034E05D
S31508003990A06838B9681E616801EB4101B0FBF1F017
S315080039A0401C0AE0681E616801EBC10202EB0111C6
S315080039B0B0FBF1F0401C40F48040C0F30B0008B99E
S315080039C001201AE0A06848B9681E616801EB410148
S315080039D0B0FBF1F0401CC0F30B000CE0681E6168F8
S315080039E001EBC10202EB0111B0FBF1F0401CC0F380
S315080039F00B0040F4804040F400402168C9694CF649
S31508003A00FF72914308432168C861D4E90701084356
S31508003A102168096821F0C001084321680860D4E9D3
S31508003A20031008432168896848F2FF329143084326
S31508003A3021688860D4E9050108432168C96821F02E
S31508003A40FF0108432168C8602068006840F001004B
S31508003A502168086000202064202084F83D000020AA
S31508003A60206384F83E0000BF24E70000A08601001A
S31508003A7080841E0000093D0040420F002DE9FC5FCE
S31508003A8004460F4690469946DDE90CAB0E9EFFF7B5
S31508003A9007FF054694F83D00202870D11923012216
S31508003AA0B0492046009503F045FC10B10220BDE858
S31508003AB0FC9F00BF94F83C00012801D10220F6E7DC
S31508003AC0012084F83C0000BF2068006800F001006F
S31508003AD028B92068006840F001002168086020685D
S31508003AE0006820F4006021680860222084F83D0000
S31508003AF0402084F83E0000202064C4F824A0A4F8DE
S31508003B002AB0608D20859848E0624B464246394681
S31508003B102046CDE9006503F0BFFA08B10120C6E7E3
S31508003B20208D88B900BF0020019020684069019067
S31508003B3020688069019000BF00BF2068006840F4D3
S31508003B4000702168086040E0208D012818D120689F
S31508003B50006820F480602168086000BF002001909A
S31508003B6020684069019020688069019000BF00BF05
S31508003B702068006840F400702168086025E0EFE0DE
S31508003B80208D022816D12068006820F480602168FC
S31508003B9008602068006840F400602168086000BF7B
S31508003BA00020019020684069019020688069019092
S31508003BB000BF0AE000BF002001902068406901901C
S31508003BC020688069019000BF00BFBAE0208D0328F5
S31508003BD07ED8208D012815D12A463146204603F085
S31508003BE04EFC08B1012062E720680069616A087026
S31508003BF0606A401C6062208D401E2085608D401ED4
S31508003C0060859EE0208D02282AD133460022574936
S31508003C102046009503F08EFB08B1012047E720688F
S31508003C20006840F400702168086020680069616ACD
S31508003C300870606A401C6062208D401E2085608D79
S31508003C40401E608520680069616A0870606A401CC9
S31508003C506062208D401E2085608D401E608570E064
S31508003C603346002241492046009503F063FB08B11C
S31508003C7001201CE72068006820F48060216808603D
S31508003C8020680069616A0870606A401C6062208D5D
S31508003C90401E2085608D401E6085334600223349CC
S31508003CA02046009503F046FB08B10120FFE6206890
S31508003CB0006840F400702168086020680069616A3D
S31508003CC00870606A401C6062208D401E208500E0F6
S31508003CD010E0608D401E608520680069616A087082
S31508003CE0606A401C6062208D401E2085608D401EE3
S31508003CF0608526E02A463146204603F0C0FB08B117
S31508003D000120D4E620680069616A0870606A401C70
S31508003D106062208D401E2085608D401E608520686B
S31508003D204069C0F3800060B120680069616A087064
S31508003D30606A401C6062208D401E2085608D401E92
S31508003D406085208D00287FF441AF202084F83D004F
S31508003D50002084F83E0000BF84F83C0000BFA6E6B9
S31508003D600220A4E6020010000000FFFF0400010084
S31508003D702DE9FC5F04460F4690469946DDE90CABF3
S31508003D800E9EFFF78DFD054694F83D0020287DD14F
S31508003D90192301224D492046009503F0CBFA10B1AC
S31508003DA00220BDE8FC9F00BF94F83C00012801D121
S31508003DB00220F6E7012084F83C0000BF206800686E
S31508003DC000F0010028B92068006840F00100216869
S31508003DD008602068006820F40060216808602120D7
S31508003DE084F83D00402084F83E0000202064C4F892
S31508003DF024A0A4F82AB0608D20853548E0624B4699
S31508003E00424639462046CDE9006503F0F5F908B182
S31508003E100120C6E731E02A463146204603F06FFB0B
S31508003E2050B1206C042805D12068006840F4007061
S31508003E30216808600120B4E7606A00782168086193
S31508003E40606A401C6062208D401E2085608D401E81
S31508003E50608520684069C0F3800070B1208D60B12C
S31508003E60606A007821680861606A401C6062208D7B
S31508003E70401E2085608D401E6085208D0028CAD191
S31508003E802A463146204603F027FA00E01CE050B1E6
S31508003E90206C042805D12068006840F40070216869
S31508003EA0086001207DE72068006840F400702168FA
S31508003EB00860202084F83D00002084F83E0000BFFA
S31508003EC084F83C0000BF6CE702206AE70200100095
S31508003ED00000FFFF10B586B00446142101A8FCF7C0
S31508003EE019FA4449206888422FD100BF0020009063
S31508003EF04148006840F020003F49086008460068CD
S31508003F0000F02000009000BF00BF0320019012209F
S31508003F10029001200390032004900420059001A933
S31508003F203648FFF7BDFB00BF00200090324810302E
S31508003F30006840F48000304910310860084600687F
S31508003F4000F48000009000BF51E02D4920688842A7
S31508003F504DD100BF002000902748006840F00400BB
S31508003F60254908600846006800F00400009000BF74
S31508003F7000BF00BF002000900846006840F001001E
S31508003F8008600846006800F00100009000BF00BF06
S31508003F9048150190122002900120039003200490F6
S31508003FA00420059001A91748FFF77AFB4FF48070A3
S31508003FB0019012200290012003900320049004200F
S31508003FC0059001A91048FFF76BFB00BF0020009081
S31508003FD009481030006840F40000074910310860AD
S31508003FE00846006800F40000009000BF00BF06B055
S31508003FF010BD00000058004030380240001402404E
S31508004000005C0040000802400000024070B504460B
S315080040100CB9012070BD4CF6CC402168086045F209
S31508004020555021680860D4E9001048602168A068E6
S315080040308860FFF735FC05460BE0FFF731FC401BAF
S31508004040312806D92068C06800F0030008B10320AB
S31508004050E0E72068C06800F003000028EDD14AF6C2
S31508004060AA20216808600020D4E701464AF6AA205B
S315080040700A681060002070470348006803490978F9
S315080040800844014908607047C8010020D001002093
S3150800409010B50D48006840F400700B4908600846E2
S315080040A0006840F4806008600846006840F4807044
S315080040B00860032000F0DCF8002000F007F800F0A4
S315080040C05FF8002010BD0000003C02402DE9F041D9
S315080040D088B004460027B84600BF0020019024484F
S315080040E0006840F00100224908600846006800F0B0
S315080040F00100019000BF00BF02A903A801F07CF8E7
S31508004100069F1FB901F0A0F8054602E001F09CF8E9
S3150800411045001848B5FBF0F0A0F101084FF08040C3
S315080041201549086040F2E7311348C160C0F80480B9
S31508004130002101618160816101F008FE064696B999
S315080041400D4801F067FF06466EB91C2000F042F8DC
S31508004150102C07D2002221461C2000F04BF80748F5
S31508004160046000E00126304608B0BDE8F081000092
S315080041704038024040420F00C8710020CC010020A0
S3150800418008B500BF002000901148006840F4804040
S315080041900F4908600846006800F48040009000BF98
S315080041A000BF00BF00200090081F006840F0805044
S315080041B0091F08600846006800F08050009000BF9C
S315080041C000BF00220F21901E00F014F808BD000061
S315080041D04438024001460846002809DB00F01F0360
S315080041E001229A4043099B0003F1E023C3F800210A
S315080041F000BF70472DE9F05F80460D46164600273A
S3150800420009F06CFA074639462A46334601F0070094
S31508004210C0F1070ABAF1040F02D94FF0040A01E007
S31508004220C0F1070AD14600F1040ABAF1070F02D213
S315080042304FF0000A01E0A0F1030AD4464FF0010A44
S315080042400AFA09FAAAF1010A0AEA020A0AFA0CFAA9
S315080042504FF0010B0BFA0CFBABF1010B0BEA030B4E
S315080042604AEA0B042146404609F040FABDE8F09FA9
S3150800427000BF00F00702064B19684FF6FF03194006
S31508004280044B0B4343EA0221014B196000BF7047F8
S315080042900CED00E00000FA0570470246106841621E
S315080042A000207047F0B5034615461868446A21B9D8
S315080042B044EA05401E68B06219E01868806A04EB93
S315080042C01044002208E0186800F5827050F82200B1
S315080042D004EB1044501CC2B2481E9042F3D844EA7C
S315080042E00547186800F582704E1E40F826700020B3
S315080042F0F0BD10B50446D4F8080507F008FC10BD53
S3150800430070B504460D4605EBC50304F13C0101EB07
S3150800431083010A692946D4F8080507F0F3FA70BD3F
S3150800432070B504460D4605EBC50304F51F7101EB90
S3150800433083010A692946D4F8080507F067FB70BDAA
S3150800434010B50446D4F8080507F0E4FB10BD2DE9BE
S31508004350F04104460D4605F08000802808D105F096
S315080043600F0000EBC00104F13C0000EB810607E0FA
S3150800437005F00F0000EBC00104F51F7000EB810685
S315080043803146206808F0B8FE07463846BDE8F08191
S3150800439070B504460E4606F0800080280AD106F05D
S315080043A00F0000EBC00104F13C0000EB8105012081
S315080043B0687009E006F00F0000EBC00104F51F70F5
S315080043C000EB81050020687006F00F00287000BF1A
S315080043D094F8BC04012801D1022070BD012084F89C
S315080043E0BC0400BF2946206808F066F900BF002013
S315080043F084F8BC0400BF00BFEFE770B504460E465C
S3150800440006F00F006168884201D9012070BD06F0E8
S31508004410800080280AD106F00F0000EBC00104F1E5
S315080044203C0000EB81050120687009E006F00F00EA
S3150800443000EBC00104F51F7000EB810500206870D1
S315080044400020A87006F00F00287000BF94F8BC047E
S31508004450012801D10220D9E7012084F8BC0400BF55
S315080044602946206808F010FC00BF002084F8BC0428
S3150800447000BF00BFCAE7024601F00F0000EBC00309
S3150800448002F51F7000EB8300006A70472DE9F047BC
S3150800449005460E4690461F464FF0000906F0800076
S315080044A080280AD106F00F0000EBC00105F13C0098
S315080044B000EB81040120607009E006F00F0000EBB4
S315080044C0C00105F51F7000EB81040020607006F03E
S315080044D00F002070C4F80C802771607808B1207826
S315080044E02081022F01D10020607100BF95F8BC041D
S315080044F0012802D10220BDE8F087012085F8BC0416
S3150800450000BF2146286807F0EDFF00BF002085F8A8
S31508004510BC0400BF4846EEE72DE9F04104460E46C6
S315080045201746984606F00F0000EBC00104F51F7009
S3150800453000EB81052F61C5F8188000202862687095
S3150800454006F00F0028702069012800D16F6106F077
S315080045500F0028B9227C2946206808F06FFA04E083
S31508004560227C2946206808F023FC0020BDE8F0815B
S3150800457070B504460D4605F00F006168884201D9FA
S31508004580012070BD05F0800080280AD105F00F00D3
S3150800459000EBC00104F13C0000EB810601207070BD
S315080045A007E005EBC50104F51F7000EB8106002046
S315080045B070700120B07005F00F00307000BF94F8DD
S315080045C0BC04012801D10220DBE7012084F8BC04E1
S315080045D000BF3146206808F09EFB05F00F0028B999
S315080045E0217C04F2C442206808F016FB00BF0020B4
S315080045F084F8BC0400BF00BFC3E72DE9F0410446B8
S315080046000E461746984606F00F0000EBC00104F167
S315080046103C0000EB81052F61C5F818800020286250
S315080046200120687006F00F0028702069012800D163
S315080046306F6106F00F0028B9227C2946206808F029
S31508004640FDF904E0227C2946206808F0B1FB002029
S31508004650BDE8F0812DE9FE4F0446D4F800B05E4669
S31508004660206808F030FE002874D1206808F06AFE39
S3150800467008B9BDE8FE8F40F608008059C0F30D2042
S31508004680C4F8FC04206808F05DFE00F00200022869
S3150800469005D12068406900F0020021684861206859
S315080046A008F050FE00F01000102845D120688069F7
S315080046B020F0100021688861DBF8209009F00F00CF
S315080046C000EBC00104F51F7000EB810AC9F34340F3
S315080046D002281AD147F6F07009EA000030B3C9F388
S315080046E00A125846DAF8101008F031FEC9F30A1112
S315080046F0DAF810000844CAF81000C9F30A11DAF803
S3150800470020000844CAF8200010E0C9F343400628F0
S315080047100CD1082204F2C441584608F018FEC9F321
S315080047200A11DAF820000844CAF8200020688069CF
S3150800473040F0100021688861206808F003FE00F444
S315080047400020B0F5002F7BD10025206808F0CAFDAF
S31508004750029072E0E1E2029800F00100002868D0B9
S31508004760E9B2206808F0E1FD804608F0010048B18A
S31508004770012106F5306000EB451081602946204688
S3150800478004F05AFC08F00800082809D1082106F5A3
S31508004790306000EB451081602946204604F01AFC7B
S315080047A008F01000102805D1102106F5306000EB3E
S315080047B04510816008F00200022824D1DBF81400B5
S315080047C000F08000802807D140F60400805940F4A4
S315080047D0806140F60400815105EBC50104F51F70A0
S315080047E000EB810A9AF80300012806D100208AF80E
S315080047F00300E9B2204600F09BFA022106F5306074
S3150800480000EB4510816008F02000202805D1202102
S3150800481006F5306000EB4510816008F40050B0F5ED
S31508004820005F06D14FF4005106F5306000EB4510E5
S3150800483081606D1C029840080290029800288AD16F
S31508004840206808F07FFD00F48020B0F5802F7DD128
S31508004850206808F03DFD029000259AE0029800F0D5
S315080048600100002873D0E9B2206808F045FD8046AB
S3150800487008F00100F0B305F00F010120884001900F
S3150800488040F634008159019821EA000040F63401C7
S315080048908851012106F5106000EB451081602069FA
S315080048A0012824D105EBC50104F13C0000EB810089
S315080048B005EBC502016904F13C0000EB8200C06803
S315080048C0014405EBC50204F13C0000EB82000161DE
S315080048D06DB905EBC50104F13C0000EB8100806968
S315080048E028B904F2C4420121206808F095F9E9B212
S315080048F0204600E001E0FFF703FD08F0080008285D
S3150800490005D1082106F5106000EB4510816008F016
S315080049101000102805D1102106F5106000EB45108F
S31508004920816008F04000402805D1402106F5106056
S3150800493000EB4510816008F0020002281DD12946C7
S31508004940584608F081FC05EBC50101E025E01CE0AE
S3150800495004F13C0000EB810A9AF80300012806D10D
S3150800496000208AF80300E9B2204600F0D8F90221AF
S3150800497006F5106000EB4510816008F0800080287D
S3150800498003D12946204604F0F9FB6D1C029840081D
S315080049900290029800287FF461AF206808F0D2FCE4
S315080049A000F00040B0F1004F1CD140F604008059D9
S315080049B020F0010140F60400815194F8F40401281E
S315080049C007D1002084F8F40400212046FFF764FC90
S315080049D002E0204600F0DCFA2068406900F000405A
S315080049E021684861206808F0ADFC00F40060B0F565
S315080049F0006F0ED140F60800805900F0010010B192
S31508004A00204600F01DFB2068406900F4006021681C
S31508004A104861206808F096FC00F48050B0F5805F85
S31508004A207ED140F60400805920F0010140F60400CA
S31508004A3081511021206808F007FC002732E04FF664
S31508004A407F3106F5106000EB4710816006F51060AF
S31508004A5000EB4710006820F4001106F5106000EB23
S31508004A60471001604FF67F3106F5306000EB4710BE
S31508004A70816006F5306000EB4710006820F40011ED
S31508004A8006F5306000EB4710016006F5306000EB74
S31508004A904710006840F0006106F5306000EB4710EB
S31508004AA001607F1C6068B842C9D840F61C0080596E
S31508004AB040F0011140F61C008151206B70B1D6F808
S31508004AC0840840F00B01C6F8841840F64400805963
S31508004AD040F00B0140F6440081510FE040F6140007
S31508004AE0805942F22B01084340F614018851081FE9
S31508004AF0805940F00B014FF401608151D6F8000847
S31508004B0020F4FE60C6F80008217C04F2C44220683E
S31508004B1008F082F82068406900F48050216800E0B7
S31508004B2000E04861206808F00DFC00F40050B0F57C
S31508004B30005F17D1206807F03DFD206808F0B0FB3C
S31508004B40E06000F07BFB0090227B2068009908F06B
S31508004B5081FC204600F004FA2068406900F4005001
S31508004B6021684861206808F0EDFB00F00800082875
S31508004B7008D1204600F013FA2068406900F00800C2
S31508004B8021684861206808F0DDFB00F08000802875
S31508004B9018D1DBF8180020F08000CBF818000125A2
S31508004BA00DE005EBC50104F51F7000EB8100C07828
S31508004BB0012803D1E9B22046FFF7C9FB6D1C6068DE
S31508004BC0A842EED8206808F0BDFB00F48010B0F5C6
S31508004BD0801F2DD1012522E006F5106000EB451057
S31508004BE0D0F8009005EBC50104F13C0000EB81000C
S31508004BF00079012812D109F00040B0F1004F0DD11B
S31508004C00012105EBC50204F13C0000EB8200C170EE
S31508004C10E8B240F080012046FFF799FB6D1C6068FA
S31508004C20A842D9D82068406900F4801021684861F4
S31508004C30206808F087FB00F40010B0F5001F44D187
S31508004C40012538E006F5306000EB4510D0F80090F5
S31508004C5005EBC50104F51F7000EB810000790128FA
S31508004C6028D109F00040B0F1004F23D109F4803073
S31508004C7094F8FC1401F0010188421BD1012105EBCF
S31508004C80C50204F51F7000EB8200C170DBF818003E
S31508004C9040F08000CBF81800DBF8140000F0800024
S31508004CA040B940F60400805940F4007140F604000B
S31508004CB0815103E06D1C6068A842C3D800BF206814
S31508004CC0406900F4001021684861206808F03AFB42
S31508004CD000F08040B0F1804F08D12046FFF709FB6D
S31508004CE02068406900F0804021684861206808F023
S31508004CF029FB00F0040004280FD12068D0F804909E
S31508004D0009F00400042802D12046FFF719FB2068A1
S31508004D10406840EA09002168486000BFA9E470B508
S31508004D2004460D462946D4F8080506F05FFF70BD0F
S31508004D3070B504460D462946D4F8080506F07AFFEC
S31508004D4070BD70B58AB0044614B901200AB070BDAA
S31508004D50266894F8BD0428B9002084F8BC042046C7
S31508004D6000F0A2F8032084F8BD04F06B00F480700C
S31508004D7008B900212161206807F058FE282204F1AD
S31508004D8010016846FBF7ADFA94E80F0007F026FC19
S31508004D9020B1022084F8BD040120D7E7002120684D
S31508004DA008F005FB002531E0012105EBC50204F1F9
S31508004DB03C0000EB8200417005EBC50104F13C00A4
S31508004DC000F8215005EBC50100EB810005810021A3
S31508004DD005EBC50204F13C0000EB8200017105EB0E
S31508004DE0C50204F13C0000EB8200C16005EBC50278
S31508004DF004F13C0000EB8200016105EBC50204F1F9
S31508004E003C0000EB82008161681CC5B26068A8425C
S31508004E10CAD800252AE0002105EBC50204F51F7053
S31508004E2000EB8200417005EBC50104F51F7000F820
S31508004E302150002105EBC50200EB8200017105EB4C
S31508004E40C50204F51F7000EB8200C16005EBC502C0
S31508004E5004F51F7000EB8200016105EBC50204F53D
S31508004E601F7000EB82008161681CC5B26068A842A9
S31508004E70D1D8282204F110016846FBF732FA94E8E3
S31508004E800F0007F0E3FC20B1022084F8BD040120DE
S31508004E905CE7002084F83800012084F8BD04206807
S31508004EA007F0C2FC002051E710B586B0044614216D
S31508004EB001A8FBF72FFA2068B0F1A04F4AD100BF2E
S31508004EC0002000902448006840F00100224908604C
S31508004ED00846006800F00100009000BF00BF4FF4CC
S31508004EE0C0500190022002900020039003200490F5
S31508004EF00A20059001A91948FEF7D2FB00BF1648FB
S31508004F00001D006840F080001349091D086000BFB5
S31508004F100020009010481430006840F480400E4984
S31508004F20143108600846006800F48040009000BF0D
S31508004F3000BF00BF002205214320FFF75BF943208D
S31508004F40FFF748F9012211030448FEF7A3FC4120A4
S31508004F50FEF76AFB06B010BD30380240000002407A
S31508004F6070B504460125E06808B9002506E0E06842
S31508004F70022801D1012501E0FDF748F82946D4F8B1
S31508004F80080506F000FFD4F8080506F0A7FE70BD70
S31508004F9010B50446D4F8080506F0D6FE10BD10B5BF
S31508004FA00446D4F8080506F0DAFE10BD70B50446C6
S31508004FB00D4600BF94F8BC04012801D1022070BD3B
S31508004FC0012084F8BC0400BF84F8385029462068BC
S31508004FD008F021FA00BF002084F8BC0400BF00BF17
S31508004FE0EDE710B5044604F2C441D4F8080506F006
S31508004FF0E1FE10BD70B50446256800BF94F8BC04F0
S31508005000012801D1022070BD012084F8BC0400BF2C
S31508005010A06A012806D1A069012803D0A86B40F42C
S315080050208030A863206808F0DDF8206807F0EAFBFE
S3150800503000BF002084F8BC0400BF00BFE3E70000FF
S3150800504010B50446D4F8080506F011FF2068D0F814
S31508005050000E40F001002168C1F8000E206A28B150
S315080050600348006840F006000149086010BD0000CA
S3150800507010ED00E070B504460D460CB9012070BD70
S315080050805848006800F00700A84209D255490D7033
S315080050900846006800F00700A84201D00120EEE7A4
S315080050A0207800F0020002281DD1207800F00400C4
S315080050B0042805D14C48006840F4E0504A49086085
S315080050C0207800F00800082805D14748006840F411
S315080050D06040454908604448006820F0F000A1682F
S315080050E0084341490860207800F00100A8B36068C9
S315080050F0012807D13C4808380068C0F34040B8B9D1
S315080051000120BCE76068022802D06068032807D13E
S31508005110354808380068C0F3406048B90120AEE752
S31508005120314808380068C0F3400008B90120A6E7EE
S315080051302D48006820F00300616808432A49086082
S31508005140FEF7AEFB064609E0FEF7AAFB801B41F216
S315080051508831884202D9032091E707E0224800688F
S3150800516000F00C006168B0EB810FEDD11D480068B6
S3150800517000F00700A84209D91A490D7008460068C8
S3150800518000F00700A84201D0012078E7207800F057
S315080051900400042807D11448006820F4E050E168A8
S315080051A0084311490860207800F00800082808D14B
S315080051B00D48006820F46040216940EAC1000A49A8
S315080051C0086000F061F808490968C1F30311074A45
S315080051D0515CC8400649086006480068FEF776FF35
S315080051E000204CE7003C024008380240A470010841
S315080051F024030020CC0100200F2202600D4A126809
S3150800520002F0030242600B4A126802F0F002826062
S31508005210084A126802F4E052C260064A126802F4AA
S315080052206042D2080261044A126802F007020A6064
S315080052307047000008380240003C024001480068F8
S31508005240704700002403002000B5FFF7F7FF044964
S315080052500968C1F38221034A515CC84000BD0000B9
S3150800526008380240B470010800B5FFF7E7FF0449A3
S315080052700968C1F34231034A515CC84000BD0000C9
S3150800528008380240B47001082DE9F04700240025CB
S315080052900026A1462548006800F00C0020B1042825
S315080052A005D008283AD105E0DFF8849039E0DFF820
S315080052B0849036E01D48001F006800F03F041B4834
S315080052C0001F006800F4800078B11A481749091FC2
S315080052D00968C1F38811A0FB017001462246002324
S315080052E03846FAF7CDFF05460EE011480F49091F63
S315080052F00968C1F38811A0FB017001462246002304
S315080053003846FAF7BDFF05460848001F0068C0F38F
S315080053100140401C4600B5FBF6F902E0DFF81090A4
S3150800532000BF00BF4846BDE8F087000008380240C5
S315080053300024F400001BB700F8B504460CB9012098
S31508005340F8BD207800F00100002874D0F9480068FC
S3150800535000F00C0004280DD0F648006800F00C0098
S31508005360082813D1F348001F006800F48000B0F540
S31508005370800F0BD1EF4808380068C0F3404000287A
S3150800538059D06068002856D10120D9E700BF606867
S31508005390B0F5803F08D1E7480838006840F4803007
S315080053A0E449083908601EE06068B0F5A02F0DD101
S315080053B0E0480838006840F48020DE49083908606B
S315080053C00846006840F4803008600CE0D948083880
S315080053D0006820F48030D749083908600846006814
S315080053E020F48020086000BF606890B1FEF758FA84
S315080053F0054606E0FEF754FA401B642801D9032047
S315080054009EE7CC4808380068C0F340400028F1D031
S3150800541011E0FEF745FA054606E0FEF741FA401B9D
S31508005420642801D903208BE7C24808380068C0F30E
S3150800543040400028F1D1207800F0020002285FD110
S31508005440BC48006800F00C0058B1BA48006800F083
S315080054500C0008281CD1B748001F006800F480001B
S31508005460B0B9B44808380068C0F3400020B1E06815
S31508005470012801D0012063E7AE480838006820F00B
S31508005480F800216940EAC100AA490839086037E0EE
S31508005490E06800B30120A8490860FEF701FA05464E
S315080054A006E0FEF7FDF9401B022801D9032047E76D
S315080054B0A04808380068C0F340000028F1D09D488D
S315080054C00838006820F0F800216940EAC1009949C7
S315080054D00839086014E0002097490860FEF7E0F9EB
S315080054E0054606E0FEF7DCF9401B022801D9032031
S315080054F026E7904808380068C0F340000028F1D134
S31508005500207800F0080008282CD16069A8B101208D
